:020000040800F2
:100000006805002001010008B5180008B7180008AD
:10001000BB180008BF180008C31800080000000043
:10002000000000000000000000000000C7180008E9
:10003000C918000800000000CB180008B11400081F
:100040001B0100081B0100081B0100081B01000820
:100050001B0100081B0100081B0100081B01000810
:100060001B0100081B0100081B0100081B01000800
:100070001B0100081B0100081B0100081B010008F0
:100080001B0100081B0100081B0100081B010008E0
:100090001B0100081B0100081B0100081B010008D0
:1000A0001B0100081B0100081B0100081B010008C0
:1000B0001B0100081B0100081B0100081B010008B0
:1000C0001B0100081B0100081B0100081B010008A0
:1000D0001B010008CD180008ED1800081B010008DE
:1000E0001B0100081B0100081B010008DFF80CD0F1
:1000F00002F0ACF90048004791170008680500209D
:100100000648804706480047FEE7FEE7FEE7FEE7B1
:10011000FEE7FEE7FEE7FEE7FEE7FEE70302000874
:10012000ED0000080CB50020019000906C480068BC
:1001300040F480306A49086000BF6948006800F4F4
:10014000003000900198401C0190009818B9019867
:10015000B0F5A06FF1D16248006800F4003010B132
:100160000120009001E0002000900098012843D178
:100170005C48006840F010005A4908600846006872
:1001800020F0030008600846006840F002000860A4
:1001900053484068524948600846406848600846ED
:1001A000406840F4806048600846406820F47C1055
:1001B00048600846406840F4E81048600846006817
:1001C00040F08070086000BF4548006800F0007093
:1001D0000028F9D04248406820F0030040494860B8
:1001E0000846406840F00200486000BF3C48406854
:1001F00000F00C000828F9D10CBD10B5FFF792FFF4
:1002000010BD10B53648006840F001003449086060
:10021000084640683449084031494860084600684B
:10022000324908402E4908600846006820F48020C2
:1002300008600846406820F4FE0048604FF41F0044
:100240008860FFF7DAFF4FF000602949086010BDB1
:1002500010B5002100200022214B5B6803F00C0147
:1002600021B1042906D0082928D107E0214B224CCE
:10027000236027E01F4B204C236023E0184B5B6872
:1002800003F47010164B5B6803F48032022303EB17
:10029000904022B9194B4343174C23600DE0104B9B
:1002A0005B6803F4003323B1144B4343124C2360C7
:1002B00003E0104B4343104C236003E00D4B0E4C06
:1002C000236000BF00BF064B5B68C3F303130C4CF5
:1002D000E15C094B1B68CB40074C236010BD00005C
:1002E00000100240002002400000FFF8FFFFF6FE71
:1002F00008ED00E000127A000000002000093D0037
:100300000400002010B50446FA48844208D10121B7
:10031000401500F07FFE0021601500F07BFE17E025
:10032000F548844208D10121001500F073FE002138
:10033000201500F06FFE0BE0F048844208D1012147
:10034000C80300F067FE00214FF4004000F062FE99
:1003500010BD30B50246002000235068E84C204014
:100360000D790C6844EA0524204350609068E54C00
:100370002040D1E902542C434D7944EA45042043FE
:100380009060D06A20F470000C7C641EE4B22343B9
:1003900040EA0350D06230BD00210160017141711B
:1003A0008160C16001210174704721B1826842F00F
:1003B0000102826003E0826822F0010282607047DD
:1003C00021B1826842F48072826003E0826822F484
:1003D00080728260704710B50023CBB21AB14468B6
:1003E0001C43446002E044689C43446010BD816843
:1003F00041F0080181607047014600208A6802F0E0
:1004000008020AB1012000E000207047816841F035
:10041000040181607047014600208A6802F00402EE
:100420000AB1012000E00020704721B1826842F447
:10043000A002826003E0826822F4A002826070471A
:10044000014600208A6802F480020AB1012000E01F
:100450000020704710B50A4600210023416821F4AE
:100460006041531E41EA4331416010BD21B14268F1
:1004700042F40062426003E0426822F4006242609B
:100480007047F0B504460D4600200021092D11DD0E
:10049000E068A5F10A0606EB4607072606FA07F10B
:1004A0008843A5F10A0606EB460603FA06F108435F
:1004B000E0600CE0206905EB4507072606FA07F126
:1004C000884305EB450603FA06F108432061072A35
:1004D0000FDA606B561E06EB86071F2606FA07F139
:1004E0008843561E06EB860605FA06F1084360634C
:1004F00022E00D2A0FDA206BD61F06EB86071F2697
:1005000006FA07F18843D61F06EB860605FA06F1C0
:100510000843206310E0E06AA2F10D0606EB8607AF
:100520001F2606FA07F18843A2F10D0606EB8606A0
:1005300005FA06F10843E062F0BD21B1826842F499
:100540008012826003E0826822F480128260704729
:100550000146C86C80B2704766484C3000687047EE
:1005600021B1426842F48062426003E0426822F4B2
:1005700080624260704721B1426842F4805242601A
:1005800003E0426822F48052426070470A4600212C
:10059000816821F4E04111438160704721B1826894
:1005A00042F40042826003E0826822F400428260EA
:1005B000704721B1826842F40212826003E08268CF
:1005C00022F4021282607047014600208A6802F419
:1005D00000120AB1012000E000207047F0B5044687
:1005E0001546002000220026092911DDE068A1F14E
:1005F0000A0707EB470C072707FA0CF29043A1F113
:100600000A0707EB470703FA07F21043E0600CE024
:10061000206901EB410C072707FA0CF2904301EB2C
:10062000410703FA07F210432061A06BC0F30156A3
:10063000EF1C06F1010CA7EB0C0707EB870C1F273B
:1006400007FA0CF29043EF1C06F1010CA7EB0C0724
:1006500007EB870701FA07F21043A063F0BD10B55E
:100660000A4600210023816B21F44011531E41EA08
:100670000351816310BD08B5002300930090009BD7
:100680000B440093009B1A6008BD08B50246002089
:100690000090009201F12800009B184400900098FF
:1006A000006880B208BD0A4600214168164B194017
:1006B0001143416070474162826270470A460021DF
:1006C000416821F01F0111434160704740B1094961
:1006D0000831096841F40001064A0832116007E058
:1006E00004490831096821F40001024A0832116006
:1006F000704700000024014000280140003C0140F8
:10070000FFFEF0FFFDF7F1FFFFFD3FFF0246002077
:1007100013680B400BB1012000E000207047CA4372
:100720000260704770B502460020002300240B12BF
:100730005568CEB205EA060415681D4015B10CB126
:10074000012000E0002070BD00220A12D3430360A4
:100750007047000001684FF6FE72114001600021F1
:10076000016041608160C1608D49884208D18C4937
:100770000839496841F00F01894A083A51608AE016
:1007800087491431884208D185490839496841F0C0
:10079000F001834A083A51607DE08149283188425E
:1007A00008D17F490839496841F470617C4A083AA8
:1007B000516070E07A493C31884208D17849083963
:1007C000496841F47041764A083A516063E07449DF
:1007D0005031884208D172490839496841F4702182
:1007E0006F4A083A516056E06D496431884208D139
:1007F0006B490839496841F47001694A083A516007
:1008000049E067497831884208D165490839496823
:1008100041F07061624A083A51603CE061498842A7
:1008200006D1011F096841F00F01021F116032E07B
:100830005C491431884208D15A49091F096841F0BE
:10084000F001584A121F116025E0564928318842AC
:1008500008D15449091F096841F47061514A121FB7
:10086000116018E04F493C31884208D14D49091FB9
:10087000096841F470414B4A121F11600BE049496D
:100880005031884207D14749091F096841F4702156
:10089000444A121F1160704710B50022026847F6E3
:1008A000F0739A430C6A8B6823430C6923434C69A9
:1008B00023438C692343CC6923434C6A23438C6ACA
:1008C00023431A430260CB6843600B6883604B6824
:1008D000C36010BD0021016041608160C1600161A1
:1008E00041618161C161016241628162704721B1F0
:1008F000026842F00102026004E002684FF6FE73F3
:100900001A40026070471AB103680B43036002E0AB
:1009100003688B4303607047416070470146486835
:1009200080B2704701460020002201F080531BB1C5
:100930001C4B083B1A6802E0194B083B1A6802EA94
:1009400001030BB1012000E00020704700F080514E
:1009500019B11449091F086002E0114908394860BB
:10096000704701460020002201F080531BB10D4B5F
:10097000083B1A6802E00A4B083B1A6802EA0103C6
:100980000BB1012000E00020704700F0805119B148
:100990000449091F086002E00149083948607047AE
:1009A000080002400804024010B50446CC488442C6
:1009B00008D10121042000F02DFB0021042000F0CB
:1009C00029FB46E0C748844208D10121082000F0F5
:1009D00021FB0021082000F01DFB3AE0C2488442C0
:1009E00008D10121102000F015FB0021102000F09B
:1009F00011FB2EE0BD48844208D10121202000F0E7
:100A000009FB0021202000F005FB22E0B8488442C9
:100A100008D10121402000F0FDFA0021402000F023
:100A2000F9FA16E0B348844208D10121802000F091
:100A3000F1FA0021802000F0EDFA0AE0AE4884428D
:100A400007D10121801500F0E5FA0021A01500F082
:100A5000E1FA10BD10B50121084600F0DBFA0021D3
:100A6000012000F0D7FA10BD2DE9F0410246002523
:100A70000026002000230024002791F803C00CF07A
:100A80000F0591F803C00CF0100CBCF1000F03D05F
:100A900091F802C04CEA050591F800C0BCF1000FC6
:100AA00031D0146800202BE04FF0010C0CFA00F359
:100AB000B1F800C00CEA03069E4220D183004FF03B
:100AC0000F0C0CFA03F7BC4305FA03FC4CEA0404D0
:100AD00091F803C0BCF1280F06D14FF0010C0CFABD
:100AE00000FCC2F814C00AE091F803C0BCF1480F42
:100AF00005D14FF0010C0CFA00FCC2F810C0401CEC
:100B00000828D1D31460B1F800C0BCF1FF0F34DD68
:100B1000546800202EE000F1080C4FF0010808FA9C
:100B20000CF3B1F800C00CEA03069E4221D1830009
:100B30004FF00F0C0CFA03F7BC4305FA03FC4CEA28
:100B4000040491F803C0BCF1280F05D100F1080C92
:100B500008FA0CF8C2F8148091F803C0BCF1480FF1
:100B600007D100F1080C4FF0010808FA0CF8C2F8A0
:100B70001080401C0828CED35460BDE8F0814FF6A9
:100B8000FF710180022181700421C170704702460B
:100B9000002093680B400BB1012000E0002070475B
:100BA0000146886880B2704702460020D3680B4037
:100BB0000BB1012000E0002070470146C86880B2F8
:100BC000704701617047416170470AB1016100E0FF
:100BD00041617047C16070474FF480320A438261BF
:100BE0008161826182698269704702460020434BBD
:100BF00018684FF68073184040EA021008433F4BD4
:100C0000186070473E49C8617047F0B50A46002336
:100C100000240021002500F00046B6F1004F02D16B
:100C2000364EF16901E0354E7168C0F3034583B279
:100C300000F44016B6F5401F08D121F070612F4E28
:100C4000766826F070662D4F7E6012E000F4801604
:100C5000B6F5801F06D1032606FA05F4A14341F03C
:100C6000706106E0460D360103FA06F6B14341F025
:100C7000706122B1460D360103FA06F6314300F0E9
:100C80000046B6F1004F02D11C4EF16101E01B4E4F
:100C90007160F0BD30B500228B071C0F0F2303FAE3
:100CA00004F2164B08338C1053F824309343134C42
:100CB00008348D1044F8253023468C1053F8243026
:100CC0008C07240F00FA04F423430C4C08348D10D5
:100CD00044F8253030BD0A49DC3108607047000017
:100CE00000080140000C01400010014000140140C8
:100CF00000180140001C014000200140000001409C
:100D000000002042DF48006840F00100DD49086033
:100D100008464068DC490840DA49486008460068EF
:100D2000DA490840D74908600846006820F4802066
:100D300008600846406820F4FE0048604FF41F0039
:100D400088607047CF49096821F48031CD4A11602D
:100D50001146096821F480211160B0F5803F03D06D
:100D6000B0F5802F0ED106E0C649096841F4803104
:100D7000C44A116007E0C349096841F4A021C14A8F
:100D8000116000E000BF00BF704710B501460022AF
:100D9000002300204A11012A02D1BA4C236806E040
:100DA000022A02D1B74C236A01E0B64C636A01F013
:100DB0001F02012494401C400CB1012000E00020DF
:100DC00010BD38B5002000900024002500BF312060
:100DD000FFF7DBFF05460098401C00900098B0F537
:100DE000A06F01D0002DF2D03120FFF7CEFF08B167
:100DF000012400E00024204638BD01460020A14A1D
:100E0000106820F0F80040EAC10010607047A04967
:100E100008607047024600209A4B586820F47C1006
:100E200042EA01031843974B586070479849086697
:100E3000704701460020934A506820F003000843A1
:100E4000506070478F48406800F00C0070470146C2
:100E500000208C4A506820F0F00008435060704732
:100E600001460020874A506820F4E0600843506043
:100E7000704701460020834A506820F4605040EAE1
:100E8000C1005060704729B17E4A527A02437D4BBF
:100E90005A7204E07B4A527A82437A4B5A72704704
:100EA0007B49D8310860704701460020754A506878
:100EB00020F440400843506070470021714A2032BE
:100EC0001170704A82F82010012802D004280AD13B
:100ED00004E001216B4A2032117005E00521694AC6
:100EE0002032117000E000BF00BF70476949086000
:100EF00070476449096A0143624A11627047654953
:100F000044390860704730B50021002200240023D6
:100F10005C4D6D6805F00C0121B1042905D008294C
:100F200023D105E05C4D056022E05B4D05601FE0CC
:100F3000544D6D6805F47012524D6D6805F480349F
:100F4000022505EB92421CB9544D554305600BE058
:100F50004C4D6D6805F400351DB1504D554305608D
:100F600002E04D4D5543056002E04B4D056000BF6A
:100F700000BF444D6D6805F0F0010909484D6B5CF8
:100F80000568DD4045603F4D6D6805F4E061090A84
:100F9000434D6B5C4568DD4085603A4D6D6805F4F6
:100FA0006051C90A3E4D6B5C4568DD40C560354DFA
:100FB0006D6805F44041890B3A4D6B5CC568B5FB23
:100FC000F3F5056130BD29B12E4A526902432D4B1C
:100FD0005A6104E02B4A526982432A4B5A61704796
:100FE00029B1284A92690243264B9A6104E0254AB6
:100FF00092698243234B9A61704729B1214AD26991
:101000000243204BDA6104E01E4AD26982431D4B41
:10101000DA61704729B11B4AD2680243194BDA6082
:1010200004E0184AD2688243164BDA60704729B14F
:10103000144A12690243134B1A6104E0114A1269FF
:101040008243104B1A61704712494039086070475B
:101050000F49C86470470B49C87170470948406A16
:1010600040F0807007494862704701460020054AF9
:1010700092680A400AB1012000E00020704701494F
:1010800088727047001002400000FFF8FFFFF6FE74
:10109000000042428004424200127A0000093D00F2
:1010A000140000202400002010B50446FB488442B0
:1010B00009D101218803FFF7ADFF00214FF48040E3
:1010C000FFF7A8FF32E0F648844209D10121480425
:1010D000FFF7ADFF00214FF40030FFF7A8FF25E038
:1010E000F048844209D101218804FFF7A0FF0021C4
:1010F0004FF48020FFF79BFF18E0EB48844209D1B2
:101100000121C804FFF793FF00214FF40020FFF7EF
:101110008EFF0BE0E548844208D101210805FFF766
:1011200086FF00214FF48010FFF781FF10BD2DE9ED
:10113000F04786B005460E460024A24600BFA146F1
:101140000027B08900B100BF2F462C8A4CF6FF70F3
:101150000440F08804432C82AC894EF6F31004401E
:10116000B08831890843718908430443AC81AC8A53
:101170004FF6FF400440B0890443AC8201A8FFF75A
:10118000C2FEC648874202D1DDF810A001E0DDF8BA
:101190000CA0A88900F4004040B10AEBCA0000EBA3
:1011A0000A1031684900B0FBF1F807E00AEBCA0009
:1011B00000EB0A1031688900B0FBF1F86420B8FB3D
:1011C000F0F004012009642101FB1089A88900F4D2
:1011D000004040B1322000EBC900B0FBF1F000F05C
:1011E0000700044308E0322000EB09106421B0FB43
:1011F000F1F000F00F0004432C8106B0BDE8F08749
:101200004FF41651016000218180C18001810C21C1
:10121000418100218181704710B502460020108A6B
:101220004FF2FF0318400B884C8823438C882343DC
:10123000CC8823431843108210BD002101804180D7
:101240008180C180704721B1828942F4005282813D
:1012500004E082894DF6FF731A4082817047F0B531
:101260000346002400260025002040F66A17B942F4
:1012700000D100BF1846C1F3421401F01F06012738
:1012800007FA06F5012C01D10C3004E0022C01D143
:10129000103000E014301AB107682F43076002E0F5
:1012A0000768AF430760F0BD1AB1838A0B4383829E
:1012B00002E0838A8B4383827047028A4FF6F07381
:1012C0001A400282028A0A430282704782894FF2E0
:1012D000FF731A40828182890A438281704721B15B
:1012E000828942F00202828104E082894FF6FD7316
:1012F0001A4082817047028A4FF6DF731A400282D9
:10130000028A0A430282704721B1028A42F4804273
:10131000028204E0028A4BF6FF731A400282704791
:10132000C1F308028280704701468888C0F3080034
:101330007047818941F0010181817047028BD2B2EF
:101340000283028B42EA012202837047028B02F47D
:101350007F420283028B0A430283704721B1828A53
:1013600042F02002828204E0828A4FF6DF731A4044
:101370008282704721B1828A42F01002828204E0A8
:10138000828A4FF6EF731A408282704721B1828AB7
:1013900042F00802828204E0828A4FF6F7731A4014
:1013A0008282704721B1828942F40042828103E047
:1013B0008289C2F30E028281704721B1828A42F48F
:1013C0000062828204E0828A4FF2FF731A408282B6
:1013D0007047828A4FF6FB731A408282828A0A43E0
:1013E0008282704721B1828A42F00202828204E046
:1013F000828A4FF6FD731A408282704702460020AF
:10140000B1F5007F00D100BF13880B400BB1012064
:1014100000E00020704701F40072B2F5007F00D1B7
:1014200000BFCA430280704770B502460024002303
:101430000025002040F66A16B14200D100BFC1F37A
:10144000421501F01F03012606FA03F3012D02D114
:101450009689334006E0022D02D1168A334001E01E
:10146000968A33400C12012606FA04F4168834409A
:1014700013B10CB1012000E0002070BD10B50022B6
:10148000002340F66A14A14200D100BF0A120124D1
:101490009440A3B2DC43048010BD0000003801403A
:1014A0000044004000480040004C00400050004014
:1014B000D9480068401CD849086070472DE9F041C0
:1014C0000246002418E0002311E052F823605D1C5E
:1014D00052F82550AE4209DD52F823005D1C52F847
:1014E000255042F823505D1C42F825005B1C0D1B63
:1014F0006D1E9D42E9DC641C4D1EA542E3DC01F03B
:101500000105002D06DD4D1E05EBD576761052F84F
:10151000260015E00D4601EBD57C4FEA6C0C52F825
:101520002C800F4601EBD77C4FEA6C0CACF1010C20
:1015300052F82CC008EB0C0606EBD67C4FEA6C0088
:10154000BDE8F0812DE9F04F8FB0B3480068B34992
:101550000968401A012815D9AF480068AF490860EA
:10156000AF480088AF49B04A126841F82200AE483F
:101570000068401CAC490860084600681E2801D17C
:1015800000200860A4480068A8490968401A642837
:101590007DD9A1480068A54908600020A4490860D9
:1015A0000EE0A048A249096850F82100A149A04ACC
:1015B000126841F822009E480068401C9C4908605F
:1015C0009B4800681E28ECD31E219A48FFF776FF3F
:1015D000824600F025FE8146974900F029FC04462A
:1015E00000F03BFE07460022944B00F0AAFD0546A2
:1015F00000F046FE924908609248006800F02DFE17
:1016000082460022904B00F024FD80468F4A904B8A
:1016100000F025FD064600228E4B00F079FC0446C2
:1016200000F02EFE8C490860084601688448006876
:1016300000F030FC894908600846006800F00DFEA3
:1016400004464FF03332864B00F009FDCDE9080126
:101650008248006800F001FE04460D467F4800689D
:1016600000F0FBFD80467F4A7F4B00F0F8FC064609
:1016700022462B4600F0F3FCCDE9040177480068D0
:1016800000F0EBFD04460D467448006800E051E0B0
:1016900000F0E3FD804689467048006800F0DDFDFB
:1016A0008246724A724B00F0DAFC064642464B46CE
:1016B00000F0D5FC22462B46CDE9000100F0CFFC1E
:1016C000CDE90201DDE9042300F0C3FCCDE9060108
:1016D000DDE9082300F01CFC0022664BCDE90A017D
:1016E00000F0B7FCCDE90C0100F0CAFD62490860CA
:1016F00000216148006800F0DFFD02D800205E494B
:1017000008605E495C48006800F0E0FD02D25B487A
:10171000594908605AA20121022000F072FA564885
:10172000006800F086FD04460423224605210220BD
:1017300000F085FA0FB0BDE8F08F70B552A201211C
:10174000032000F05EFA3F48006800F072FD044696
:10175000022322460521032000F071FA4CA2072142
:10176000032000F04EFA4B493648006800F060FB59
:10177000054600F05EFD80B2642190FBF1F201FBB2
:101780001204022322460821032000F058FA70BDFB
:1017900041480068414AB0FBF2F000EB8000810054
:1017A000B1F1807F00D31DE021F07F40401E4FF05B
:1017B000E022506150170F22002807DA13071D0E90
:1017C000374B00F00F04241F1D5503E013071C0EB8
:1017D000344B1C5400BF00204FF0E02290610720E2
:1017E000106100BF00F009F900F0C7FA2EA2012134
:1017F000084600F006FA22A20121022000F001FAB8
:1018000021A20121032000F0FCF903E0FFF795FF7E
:10181000FFF798FEFAE700003C000020400000209F
:1018200058000020600000204800002044000020F4
:101830004C000020D8000020333353400000B0405B
:10184000500000202C000020000039407B14AE47DF
:10185000E17A943F0000F03F300000203400002087
:1018600033CB7A40EC51B81E85FB5F403D0AD7A3CD
:1018700070AD504000003240280000200000AF440E
:101880005444533A0000000054454D3A0000000013
:101890002E0000000000C8420000002040420F005F
:1018A00018ED00E000E400E048616F536875693AA4
:1018B00000000000704700BFFEE700BFFEE700BF6A
:1018C000FEE700BFFEE770477047704710B540F273
:1018D00025510748FFF7A8FD38B10548FFF724FD5B
:1018E000C4B2214603A000F0D3FD10BD704770477D
:1018F000003801402563000008B501210420FFF7EE
:101900006FFB0420ADF8000000208DF8030069464D
:101910003D48FFF7A9F808BD00B591B00121084680
:10192000FFF751FB01214802FFF75AFB3748FEF74A
:1019300011FF374806903748079000200890012093
:10194000099000200A900B904FF480700C9080005A
:101950000D9020200E9000020F900020109006A9FC
:101960002A48FEF799FF01212848FEF7C0FF002012
:1019700001908DF8080001208DF809004FF46020D7
:1019800003900020049001208DF8140001A9204844
:101990004C38FEF7DEFC4FF44040FFF785FA052394
:1019A000012202211A484C38FEF76BFD012118482C
:1019B0004C38FEF705FD012115484C38FEF7F5FCC3
:1019C00013484C38FEF713FD00BF11484C38FEF7A2
:1019D00013FD0028F9D10E484C38FEF717FD00BF63
:1019E0000B484C38FEF717FD0028F9D101210848B3
:1019F0004C38FEF71AFD11B000BD10B5FFF77CFFA3
:101A0000FFF78AFF10BD00000008014008000240F7
:101A10004C2401405800002008B501210820FFF7A0
:101A2000DFFA14208DF8030003208DF802004FF434
:101A30008070ADF800006946FB48FFF715F84FF4D9
:101A40000070ADF800006946F748FFF70DF8012275
:101A50001102F548FFF7B9F801225102F248FFF7E9
:101A6000B4F808BD10B501225102EF48FFF7ADF8F8
:101A700001221102EC48FFF7A8F800224FF4007190
:101A8000E948FFF7A2F800224FF48071E648FFF71B
:101A90009CF810BD10B500224FF40071E248FFF72A
:101AA00094F801221102E048FFF78FF80122510259
:101AB000DD48FFF78AF810BD70B50546002415E033
:101AC0008020204100EA05024FF40071D648FFF75C
:101AD0007CF801221102D448FFF777F800224FF476
:101AE0008071D148FFF771F8601CC4B2082CE7DBA5
:101AF00001221102CC48FFF768F800224FF48071F0
:101B0000C948FFF762F870BD10B50446FFF7AAFF99
:101B10007820FFF7D1FF0020FFF7CEFF2046FFF728
:101B2000CBFFFFF7B7FF10BD10B50446FFF79AFFD4
:101B30007820FFF7C1FF4020FFF7BEFF2046FFF7E8
:101B4000BBFFFFF7A7FF10BD70B505460C4645F07B
:101B5000B000FFF7D9FF102141EA1410FFF7D4FFBE
:101B600004F00F00FFF7D0FF70BD70B500240EE049
:101B700000212046FFF7E8FF002504E00020FFF7E2
:101B8000D3FF681CC5B2802DF8DB601CC4B2082CE2
:101B9000EEDB70BD2DE9F04105460E461746721E7C
:101BA000D206110E6A1E5206100EFFF7CDFF00245A
:101BB00009E0A7F120019D4A02EB0111085DFFF742
:101BC000B3FF601CC4B2082CF3DB721ED206110EE8
:101BD0006A1E012303EB4202D0B2FFF7B5FF0024D7
:101BE0000BE0A7F12001914A02EB011204F1080178
:101BF000505CFFF799FF601CC4B2082CF1DBBDE814
:101C0000F0812DE9F04107460E461546002407E015
:101C10002A5D3019C1B23846FFF7BCFF601CC4B260
:101C2000285D0028F4D1BDE8F08110B502460120FE
:101C300000E050430B1EA1F10101FAD110BD2DE9C6
:101C4000F04780460E4617461D46002415E0281B27
:101C5000411E0A20FFF7E9FFB7FBF0F00A21B0FBB5
:101C6000F1F201FB120000F130093019C1B24A460D
:101C70004046FFF78FFF601CC4B2AC42E7DBBDE813
:101C8000F0872DE9F0478146884615461E46002D0F
:101C900006DB2B2241464846FFF77CFF2F4605E036
:101CA0002D2241464846FFF775FF6F42002417E09A
:101CB000301B411E0A20FFF7B8FFB7FBF0F00A21E6
:101CC000B0FBF1F201FB120000F1300A08EB040056
:101CD000401CC1B252464846FFF75CFF601CC4B2CC
:101CE000B442E5DBBDE8F0872DE9F04781460E46BA
:101CF00090461F4600241DE0381B411E1020FFF7B0
:101D000094FFB8FBF0F000F00F050A2D08DA05F19A
:101D10003000C2B23019C1B24846FFF73BFF07E0BE
:101D200005F13700C2B23019C1B24846FFF732FFA1
:101D3000601CC4B2BC42DFDBBDE8F0872DE9F04790
:101D400080460E4617461D46002412E0281B411E01
:101D50000220FFF76AFFB7FBF0F000F0010000F18E
:101D600030093019C1B24A464046FFF713FF601CE4
:101D7000C4B2AC42EADBBDE8F08770B5002406E0EF
:101D8000002500E06D1CB5F57A7FFBD3641CB4F52B
:101D90007A7FF5D3FFF740FEAE20FFF7B5FED520E2
:101DA000FFF7B2FE8020FFF7AFFEA820FFF7ACFEE2
:101DB0003F20FFF7A9FED320FFF7A6FE0020FFF784
:101DC000A3FE4020FFF7A0FEA120FFF79DFEC82044
:101DD000FFF79AFEDA20FFF797FE1220FFF794FE36
:101DE0008120FFF791FECF20FFF78EFED920FFF76D
:101DF0008BFEF120FFF788FEDB20FFF785FE302009
:101E0000FFF782FEA420FFF77FFEA620FFF77CFEEF
:101E10008D20FFF779FE1420FFF776FEAF20FFF745
:101E200073FEFFF7A2FE70BD000C0140B62500084E
:101E300080EA010210B502F00043400022D04A00BF
:101E40001FD0010E01EB1261C0F35600C2F356021F
:101E500040F4000042F40002A0FB022000047F399D
:101E6000140400D0401C50EA124001D44000491E26
:101E7000C2B20C0604EBD010401C4008802A02D0ED
:101E800003E0002010BD20F00100002900DA00204E
:101E9000184310BD30B480EA010202F0004530F072
:101EA000004221F0004013D090B1C30DD40DC2F315
:101EB0001601C0F31600E41A41F4000140F40002D8
:101EC0007D34914201D3641C00E04900002C02DA09
:101ED00030BC002070474FF400000023914201D332
:101EE000891A034340084FEA4101F7D151B19142A9
:101EF00002D14FF0004105E002D24FF0010101E0B4
:101F00006FF0010103EBC450284430BC00F009BA63
:101F10002DE9FE4F804681EA0300C00F0C46009079
:101F200021F0004123F00045B8EB0200A94105D2A1
:101F30004046214690461C460B46024623F0004090
:101F4000104347D0270DC7F30A00C3F30A5102908C
:101F5000401A019040286BDAC3F3130040F4801B51
:101F60000098924620B10023D2EB030A63EB0B0BDF
:101F700001985946C0F14002504600F0B1F90646BA
:101F80000D4650465946019A00F0B9F910EB080089
:101F90006141002487EA115284EAE7731A4340D072
:101FA000009A62B3019A012A4FEA075215DC001B1E
:101FB00061EB02014FF0004202EA0752CDE9004214
:101FC000001C41F5801132462B4600F0F0F903B0B9
:101FD000BDE8F08F40462146F9E7001B61EB0201A6
:101FE000001C41F5801300185B412018A2F5001772
:101FF00047EB030140EAD570B6196D4111E06D0859
:102000004FEA360645EAC0754FEA0752001B61EBFE
:102010000201001C41F5801149084FEA3000001907
:10202000514132462B4603B0BDE8F04F00F0B0B945
:102030000098012240000023D0EB020263EBE07322
:10204000009821464FEAE074B8EB000061EB040110
:10205000E9E783F000435BE781F0004158E72DE9B1
:10206000FE4F81EA030404F0004421F00041009493
:102070004FF0000B23F0004350EA01045ED052EA17
:1020800003045BD0C3F30A54C1F30A552C44A4F2F1
:10209000F3340194A0FB0254C1F3130141F4801105
:1020A000C3F3130343F4801301FB024400FB034E0C
:1020B000840A970A44EA815447EA8357A4FB0768D5
:1020C00002958D0A05FB07854FEA932C04FB0C54FF
:1020D0002705029D4FEA065847EA1637B5EB080573
:1020E0006EEB070C870E920E47EA811742EA8312C5
:1020F000A7FB0201B6EB0B0164EB00042B0D43EAD6
:102100000C335E1844EB1C50DA465146E7FB0201E3
:10211000C5F313044FEA0B3343EA14534FEA043276
:10212000019C43EA0603A4F10C040294009CCDE94F
:1021300000B400F03CF903B0BDE8F08F0020014688
:10214000F9E72DE9F04D81EA030404F0004B21F09A
:10215000004514464FF0000A23F0004150EA050202
:1021600020D054EA01021DD0C5F30A570246C5F338
:102170001303C1F31300C1F30A5640F4801543F46E
:102180008013A7EB0608101BD64608F2FD3873EB48
:10219000050002D308F1010801E092185B41B8F193
:1021A000000F03DA00200146BDE8F08D00204FF457
:1021B0008011064684460EE0171B73EB050705D316
:1021C000121B63EB050306434CEA010C49084FEA76
:1021D000300092185B4150EA0107EDD152EA03004A
:1021E00012D082EA040083EA0501084305D0101BDF
:1021F000AB4106D20122002306E000224FF000434B
:1022000002E06FF0010253101AEB06004CEB08518C
:1022100010EB0A0041EB0B01BDE8F04D00F0B8B83F
:10222000C10F80EAE0700844CA079623002100F03D
:1022300081B820F00040C10DC0F3160040F400004A
:102240007F2901DA00207047962903DCC1F196014D
:10225000C840704796398840704700F0004230F01F
:1022600000400AD0C10D01F56071C0F3160042EACA
:102270000151C208400711437047002001467047D2
:1022800001F0004330B421F0004150EA010206D0D1
:102290000A0DA2F56072C1F31301002A02DC30BC02
:1022A00000207047440F44EAC104C100E01830BC6C
:1022B00000EBC25000F035B8002801DBC0F100404F
:1022C000002901DBC1F1004181427047002801DB98
:1022D000C0F10040002901DBC1F100418842704794
:1022E000202A04DB203A00FA02F1002070479140D6
:1022F000C2F1200320FA03F3194390407047202ACB
:1023000006DBCB17203A41FA02F043EAE07306E01D
:1023100041FA02F3D040C2F120029140084319462D
:1023200070470029A8BF7047401C490008BF20F033
:102330000100704710B4B0FA80FC00FA0CF050EACB
:10234000010404BF10BC704749B1CCF1200421FA4C
:1023500004F411FA0CF118BF012121430843A3EB47
:102360000C01CB1D4FEA00614FEA102042BF002054
:1023700010BC704700EBC35010440029A4BF10BC30
:102380007047401C490008BF20F0010010BC704796
:1023900010B5141E73F1000408DA401C41F100016D
:1023A00092185B411A4301D120F0010010BD2DE9C4
:1023B000F04D92469B4611B1B1FA81F202E0B0FABB
:1023C00080F220329046FFF78BFF04460F4640EA2A
:1023D0000A0041EA0B0153465A46084313D01146FE
:1023E00053EA010019D0C8F14002504600F040F80D
:1023F00005460E46504659464246FFF771FF0843D0
:1024000005D0012004E020463946BDE8F08D0020CB
:10241000054346EAE0762C4337430A986305E40A0D
:10242000A0EB08000022FD0A44EA47540A3002D516
:1024300000200146E9E7010510196941DDE9084579
:1024400000196941BDE8F04DA2E70000064C074DB8
:1024500006E0E06840F0010394E807009847103474
:10246000AC42F6D3FDF746FEA82B0008C82B0008A7
:10247000202A04DB203A21FA02F00021704721FAD9
:1024800002F3D040C2F12002914008431946704740
:102490000FB4054B10B503A9044A029800F017F8D1
:1024A00010BC5DF814FB0000A52500085C000020AE
:1024B00002E008C8121F08C1002AFAD1704770470D
:1024C000002001E001C1121F002AFBD170472DE955
:1024D000F84F9946924688460546002706E025288B
:1024E0000AD051464A4690476D1C7F1C2878002828
:1024F000F5D13846BDE8F88F002315F8011F1846BE
:102500002E2915D115F8011F04232A290DD06FF0AB
:102510002F022978A1F13004092C09D800EB8000A2
:1025200002EB400008446D1CF3E758F8040B6D1CE7
:102530002A78002ADDD0632A07D0732A0FD01046EC
:1025400051464A4690477F1C2AE018F8042B8DF824
:10255000002000218DF801106E46012103E058F89B
:10256000046B4FF0FF315A074FF0000401D409E02B
:10257000641C84420BDA8C42FADB325D002AF7D10C
:1025800005E0641C8C42FCDB305D0028F9D1274457
:1025900004E016F8010B51464A469047641EF8D2F3
:1025A0006D1CA3E738B504468DF80000694603208A
:1025B000ABBE204638BD0000000000000000000057
:1025C000000000000000000000F800000000000013
:1025D00000333000000000100C06100C0600000054
:1025E00000000000000040C07840C0784000043F78
:1025F00004043F040400007088FC08300000001848
:1026000020FF211E0000F008F000E018000000216B
:102610001C031E211E0000F00888700000001E210F
:1026200023241927211010160E00000000000000BE
:10263000000000000000000000E01804020000009C
:1026400000071820400000020418E00000000040CD
:10265000201807000000404080F080404000020247
:10266000010F01020200000000F000000000010163
:10267000011F01010100000000000000000080B007
:1026800070000000000000000000000000000001D9
:102690000101010101010000000000000000003004
:1026A000300000000000000000008060180400609E
:1026B00018060100000000E010080810E000000FFC
:1026C000102020100F00001010F800000000002063
:1026D000203F2020000000700808088870000030AB
:1026E0002824222130000030088888483000001853
:1026F000202020110E000000C02010F8000000076C
:102700000424243F240000F80888880808000019E1
:10271000212020110E0000E0108888180000000F12
:10272000112020110E0000380808C83808000000E9
:10273000003F000000000070880808887000001C3E
:10274000222121221C0000E010080810E0000000F7
:10275000312222110F00000000C0C0000000000064
:102760000030300000000000008000000000000089
:102770008060000000000000804020100800000180
:102780000204081020004040404040404000040443
:10279000040404040400000810204080000000200D
:1027A000100804020100007048080808F00000004A
:1027B000003036010000C030C828E810E0000718DB
:1027C000272423140B000000C038E0000000203C48
:1027D00023020227382008F8888888700000203FEC
:1027E000202020110E00C030080808083800071803
:1027F00020202010080008F808080810E000203FFA
:10280000202020100F0008F88888E8081000203FDA
:1028100020202320180008F88888E8081000203FAE
:10282000200003000000C030080808380000071826
:102830002020221E020008F808000008F808203FA7
:10284000210101213F20000808F8080800000020AD
:10285000203F2020000000000808F8080800C08081
:1028600080807F00000008F888C028180800203FFA
:1028700020012638200008F8080000000000203F52
:1028800020202020300008F8F800F8F80800203F49
:10289000003F003F200008F830C00008F808203F43
:1028A000200007183F00E01008080810E0000F1093
:1028B000202020100F0008F808080808F000203F2A
:1028C000210101010000E01008080810E0000F18C5
:1028D000242438504F0008F8888888887000203FEA
:1028E0002000030C302000708808080838000038E9
:1028F000202121221C00180808F8080818000000F0
:10290000203F2000000008F808000008F808001F19
:10291000202020201F000878880000C83808000008
:1029200007380E010000F80800F80008F800033C22
:102930000700073C030008186880806818082030EA
:102940002C03032C30200838C800C83808000000C9
:10295000203F2000000010080808C8380800203870
:10296000262120201800000000FE020202000000C4
:10297000007F40404000000C30C00000000000001C
:1029800000010638C00000020202FE000000004004
:1029900040407F000000000004020202040000002A
:1029A0000000000000000000000000000000808027
:1029B000808080808080000202040000000000000F
:1029C00000000000000000008080808000000019EE
:1029D000242222223F2008F8008080000000003FCF
:1029E000112020110E000000008080800000000EE9
:1029F000112020201100000000808088F800000EC7
:102A0000112020103F200000808080800000001FE7
:102A1000222222221300008080F08888881800205B
:102A2000203F202000000000808080808000006B1C
:102A300094949493600008F8008080800000203F08
:102A4000210000203F200080989800000000002016
:102A5000203F20200000000000809898000000C067
:102A60008080807F000008F8000080808000203F88
:102A700024022D302000000808F80000000000208B
:102A8000203F202000008080808080808000203FC8
:102A900020003F20003F8080008080800000203F99
:102AA000210000203F200000808080800000001F67
:102AB000202020201F00808000808000000080FFF8
:102AC000A12020110E000000008080808000000EF8
:102AD000112020A0FF808080800080808000202046
:102AE0003F212000010000008080808080000033B2
:102AF000242424241900008080E08080000000004D
:102B0000001F202000008080000000808000001F47
:102B1000202020103F2080808000008080800001E5
:102B20000E300806010080800080008080800F3019
:102B30000C030C300F00008080008080800000209B
:102B4000312E0E31200080808000008080808081C6
:102B50008E70180601000080808080808000002137
:102B6000302C2221300000000000807C0202000096
:102B70000000003F404000000000FF000000000097
:102B80000000FF0000000002027C80000000004006
:102B9000403F0000000000060101020204040000A2
:102BA0000000000000000000C82B0008000000200A
:102BB00060000000B0240008282C000860000020FD
:102BC00008050000C024000800A24A04000000001C
:102BD00000000000010203040607080900000000CD
:102BE000010203040102030406070809020406089F
:102BF000000000000000B8410000803F000000001D
:102C00000000803F00000000000000000000000005
:102C100000000000000000000000000000000000B4
:082C20000000000000000000AC
:04000005080000ED02
:00000001FF
